:020000040800F2
:10000000900E0020E50200089D3B0008953700088F
:10001000993B0008DD040008214D000800000000A5
:10002000000000000000000000000000394200084D
:10003000E104000800000000A13B00082D43000877
:10004000FF020008FF020008FF020008FF0200088C
:10005000FF020008FF020008FF020008C1060008B6
:10006000C9060008FF020008FF020008FF0200089E
:10007000FF020008FF020008FF020008FF0200085C
:10008000FF020008FF020008FF020008FF0200084C
:10009000FF0200088D090008FF020008FF020008A7
:1000A000FF020008FF020008FF020008FF0200082C
:1000B000FF020008FF02000845430008FF02000895
:1000C000FF020008FF020008FF020008FF0200080C
:1000D000FF020008FF020008FF020008FF020008FC
:1000E000FF020008FF020008FF020008FF020008EC
:1000F000FF020008FF020008FF020008FF020008DC
:10010000FF020008FF02000851430008FF02000838
:10011000C9440008FF0200085D4300086943000865
:10012000FF020008FF020008FF020008FF020008AB
:10013000FF020008FF020008FF020008FF0200089B
:10014000FF020008FF020008FF020008FF0200088B
:10015000FF020008FF020008FF020008FF0200087B
:10016000FF020008FF020008FF020008FF0200086B
:10017000FF020008FF020008FF020008FF0200085B
:10018000FF020008FF020008FF020008FF0200084B
:10019000FF02000800000000210A0008FF0200081A
:1001A000B50A0008FF020008FF020008FF0200086D
:1001B000FF020008FF020008FF020008FF0200081B
:1001C000FF020008FF020008FF020008FF0200080B
:1001D000FF020008FF02000800F002F800F072F8C9
:1001E00014A696E8000CB244B344DA4501D100F0FD
:1001F00069F8BAE80F000FA696E83000A5EB0405F1
:1002000004EB0607AAEB0704A7F101074FEA15154F
:100210004FEA3414A4F10104AC4201D300F052F8C7
:1002200013F0010F18BFFB1A43F0010300F001F8AF
:10023000DBE71847F04D0000104E00000A444FF075
:10024000000C10F8013B13F0070408BF10F8014B35
:100250001D1108BF10F8015B641E05D010F8016B7A
:10026000641E01F8016BF9D113F0080F1EBF10F8DE
:10027000014BAD1C0C1B09D16D1E58BF01F801CB01
:10028000FAD505E014F8016B01F8016B6D1EF9D584
:100290009142D6D37047000070470000002300242D
:1002A00000250026103A28BF78C1FBD8520728BF86
:1002B00030C148BF0B6070471FB504F075FE1FBD0D
:1002C00010B510BD00F0D0F81146FFF7F5FF04F0AF
:1002D000EDFD00F0EEF803B4FFF7F2FF03BC00F011
:1002E000F5F800000948804709480047FEE7FEE7A7
:1002F000FEE7FEE7FEE7FEE7FEE7FEE7FEE7FEE7D6
:1003000004480549054A064B704700003143000880
:10031000D901000890080020900E0020900A0020CB
:10032000900A002053EA020C00F069802DE9F04B9E
:100330004FF00006002B1FBFB3FA83F503FA05F454
:1003400024FA05F65E4012BF1643B2FA82F502FAAD
:1003500005F4C5F120051EBF22FA05FC44EA0C0491
:10036000203556EA044C4FEA144418BF641C4FF081
:1003700000084FF00009904271EB030C39D30029BB
:1003800019BFB1FA81F701FA07F6B0FA80F700FA5F
:1003900007F6C7F120071EBF20FA07FC46EA0C0645
:1003A0002037B6FBF4FCA7EB0507103F07F01F0B47
:1003B000CBF120062CFA06F60CFA0BFB44BFB34631
:1003C0000026202FA4BF5E464FF0000B5BEA060C10
:1003D00008BF4FF0010B19EB0B0948EB0608ABFB0C
:1003E000027C06FB02CC0BFB03CCC01B71EB0C01A7
:1003F000C1E70B46024641464846BDE8F08B13B5BF
:10040000084318BF4FF0FF300146AFF30080BDE84E
:100410001C4070474FF0000200B5134694469646C4
:10042000203922BFA0E80C50A0E80C50B1F1200107
:10043000BFF4F7AF090728BFA0E80C5048BF0CC0B5
:100440005DF804EB890028BF40F8042B08BF704713
:1004500048BF20F8022B11F0804F18BF00F8012B85
:100460007047704770477047754600F02BF8AE46EE
:1004700005006946534620F00700854618B020B5B0
:10048000FFF73EFFBDE820404FF000064FF00007A9
:100490004FF000084FF0000BAC46ACE8C009ACE8E8
:1004A000C009ACE8C009ACE8C00921F007018D46DD
:1004B000704710B50446AFF300802046BDE81040F9
:1004C000FFF709BF00487047500400200149182079
:1004D000ABBEFEE72600020070470000FEE700000A
:1004E0007047000010B52DED028B40F2C040C2F203
:1004F0000000C078032847D8DFE800F00238142451
:1005000040F26064C2F2000400200121224603F0A0
:1005100057FB002002212246BDEC028BBDE81040B3
:1005200003F04EBB9FED1C8A40F26064C2F20004EF
:10053000B0EE480A0120214603F068FBB0EE480AFD
:100540000CE000BF40F260649FED110AC2F20004AB
:100550000120214603F05AFB9FED0E0A022021469E
:10056000BDEC028BBDE8104003F050BB9FED0A0AC2
:1005700040F26061C2F200010120BDEC028BBDE8D7
:10058000104003F043BB00BFBDEC028B10BD00BFA9
:10059000000080C4000080440000000010B540F25C
:1005A000C044C2F20004607890B1FF2816D0012840
:1005B0001FD1A07802280DD3207888B101F0DAF994
:1005C0002178A06001390A062170F7D109E000BF47
:1005D00000200DE0A078022828BF10BD032007E00E
:1005E000A068616800F1640201209142C8BF022046
:1005F000E07010BD40F2CC40C2F20000D0F8031011
:1006000090ED113A00EE101AD0F80B20B8EEC01A97
:100610009FED272A31EE434A00EE102AB4EE424AFB
:10062000B8EEC00AF1EE10FA80ED101A80ED140A4F
:1006300004DD90ED133A9FED214A0AE09FED1D5A2B
:1006400090ED133AB4EE454AF1EE10FA05DA9FED5B
:100650001A4A33EE043A80ED133A33EE014A90ED34
:10066000153A80ED111A30EE433AB4EE423AF1EE0B
:1006700010FA80ED124A05DD90ED171A9FED0F2A52
:100680000BE000BF9FED0B2A90ED171AB4EE423A33
:10069000F1EE10FA05DA9FED082A31EE021A80ED2C
:1006A000171A31EE001A80ED150A80ED161A704700
:1006B00000008047000080C700000048000000C81C
:1006C000022001F06BB80000042001F067B80000C0
:1006D00040F2CC40C2F20000D0F8131090ED093A7D
:1006E00000EE101AB8EEC01AD0F81B109FED272AA2
:1006F00031EE434A00EE101AB4EE424AB8EEC00A98
:10070000F1EE10FA80ED081A80ED0C0A04DD90ED90
:100710000B3A9FED214A0AE09FED1D5A90ED0B3AEE
:10072000B4EE454AF1EE10FA05DA9FED1A4A33EEBF
:10073000043A80ED0B3A33EE014A90ED0D3A80ED2C
:10074000091A30EE433AB4EE423AF1EE10FA80ED77
:100750000A4A05DD90ED0F1A9FED0F2A0BE000BF4E
:100760009FED0B2A90ED0F1AB4EE423AF1EE10FA1B
:1007700005DA9FED082A31EE021A80ED0F1A31EEEC
:10078000001A80ED0D0A80ED0E1A70470000C84770
:100790000000C8C700004848000048C840F2EC40CC
:1007A000C2F2000090ED021A9FED300A31EE002AED
:1007B0009FED2F0AB0EEC22AB4EE402AF1EE10FAF5
:1007C0000CDC90ED062A9FED2B3A32EE032AB0EEB8
:1007D000C22AB4EE402AF1EE10FA19DDB0EEC11AC9
:1007E000B4EE401AF1EE10FA37DC90ED061AB0EED6
:1007F000C11AB4EE401AF1EE10FAC8BF70474FF4B8
:10080000006141F20000C4F60000012201F0ACB822
:1008100010B540F2B044C2F20004A07840B100BF6D
:1008200001F0A8F8A178E060481E0106A070F7D199
:1008300041F20000C4F600004FF40061012201F013
:1008400093F840F2C440C2F20000E168006801F58C
:100850007A718842BDE8104000DA7047802141F289
:100860000000C4F60000012201F07EB800C1454836
:100870000000C84200D9414840F2B040C2F2000036
:1008800001780131CAB2022A88BF7047C90002222A
:10089000C9B2C0F2010222FA01F1017170470000F1
:1008A00040F2CC42C2F2000202EBC000D1F80320B9
:1008B000096840F8052C40F8081C70472DE9F04FF6
:1008C00083B040F20808C2F2000898F8000040F235
:1008D000CC41C2F2000100284FF00007C1E90A77BD
:1008E000C1E90E7749D040F20410C0F2060040F290
:1008F000606A40F2FC56C2F2000A6D4600F5807B49
:1009000000F50074C2F2000600F5407940F20410D0
:10091000C0F20600009050462946012204230197A8
:1009200000F012F9C82000F09DF950462946022235
:100930000423CDE900B700F007F9C82000F092F9D0
:100940003046294603220423CDE9004700F0FCF895
:10095000C82000F087F93046294604220423CDE957
:10096000009700F0F1F8C82000F07CF998F800003A
:100970000138010688F80000C8D103B0BDE8F08F47
:10098000EFF3108072B600BFFEE7000040F298500F
:10099000C2F2000000F05EBBB0B588B000250121B6
:1009A0000224CDE9051502A9CDE902550494079565
:1009B00000F04EFA10B1204608B0B0BD40F2985099
:1009C000C2F20000022102220023009500F070FA1A
:1009D000002818BFFFF7D4FF40F29850C2F2000081
:1009E0004FF40021002200F051F9002818BFFFF752
:1009F000C7FF40F29850C2F200000121002200F02F
:100A000045F9002818BFFFF7BBFF40F29850C2F22B
:100A1000000000F093FE0024204608B0B0BD0000A6
:100A200040F2FC50C2F2000000F014BBB0B588B038
:100A30000025022402A9CDE90255CDE90444CDE9FF
:100A4000065500F005FA18B1204608B0B0BD00BF49
:100A500040F2FC50C2F20000022102220023009565
:100A600000F026FA002818BFFFF78AFF40F2FC507A
:100A7000C2F200004FF40021002200F007F9002824
:100A800018BFFFF77DFF40F2FC50C2F200000821C2
:100A9000002200F0FBF8002818BFFFF771FF40F2BA
:100AA000FC50C2F2000000F049FE0024204608B0CD
:100AB000B0BD000040F26060C2F2000000F0CABAAF
:100AC000B0B588B0002501210224CDE9051502A9A1
:100AD000CDE902550494079500F0BAF910B120460B
:100AE00008B0B0BD40F26060C2F2000002210222F4
:100AF0000023009500F0DCF9002818BFFFF740FF45
:100B000040F26060C2F200004FF40021002200F0C9
:100B1000BDF8002818BFFFF733FF40F26060C2F253
:100B200000000121002200F0B1F8002818BFFFF7F3
:100B300027FF40F26060C2F2000000F0FFFD0024D9
:100B4000204608B0B0BD000080B58AB08C460021B8
:100B50000192CDE90211CDE90431CDE90611CDE9CB
:100B6000081101A9624600F017F9002818BF0120FA
:100B70000AB080BD014690F82500022828D180B532
:100B80000868D1E910CE8A6C036823F00E03036075
:100B9000136823F480731360026822F0010202607C
:100BA0000EF01F00012202FA00F0CCF80400D1E997
:100BB00013205060486D30B1026822F480720260E8
:100BC000D1E9160242600020BDE8804003E000BF8A
:100BD0000420C8630120012281F82520002281F829
:100BE0002420704790F82510022931D180B5016882
:100BF000D0E910CE826C0B6823F00E030B600B68FB
:100C000023F001030B60116821F4807111600EF074
:100C10001F02012101FA02F2CCF80420D0E91332BC
:100C20005A60426D32B1136823F480731360D0E9C7
:100C30001623536080F82510826B002180F8241061
:100C40000AB190470021BDE880400846704700BFC8
:100C50000421C1630121002280F8251080F824209E
:100C600008467047B0B5044600F084FE054640F2E1
:100C70000000C2F200004068611C18BF044400BFBD
:100C800000F078FE401BA042FAD3B0BD10B590F83A
:100C90005C30013B012B69D800685FEA417ED0F8E7
:100CA00058C00CF0010300D01BB311F0380F02D074
:100CB0001CF002041DD011F4E07F02D01CF00404EB
:100CC00017D011F4F05F02D01CF0080411D011F419
:100CD000604F02D01CF010040BD011F4403F02D042
:100CE0001CF0200405D011F47C0F06D01CF0400449
:100CF00003D1C46D44F00104C465BEF1000F18BFF8
:100D0000002B3BD111F0380F18BF1CF0020335D176
:100D100011F4E07F18BF1CF004032FD111F4F05F31
:100D200018BF1CF0080329D111F4604F18BF1CF044
:100D3000100323D111F4403F18BF1CF020031DD134
:100D400011F47C0F18BF1CF0400317D10B061BD405
:100D5000CB0504D5D0F8E0301A43C0F8E02000F10C
:100D60005402002013681943116010BD00F16002A5
:100D70000120022113681943116010BDC36D43F0B7
:100D80000203C3650B06E3D5D0F8DC301343C0F88B
:100D9000DC30CB05DED4E2E790F85C30022B17D1D3
:100DA0002DE9F041D0F800E0DEF8C4309B0215D404
:100DB000DEF8C430D1E900748E680D69C3F3014CCC
:100DC000A4B145EA0703334343F0804812E000BF73
:100DD000016E41F00801016601207047016E41F487
:100DE000007101660120BDE8F08100BF45EA87433C
:100DF00043EA060801F11407F0CF46EA07663543D7
:100E0000CB682C43456D0CEBCC0644EA034305EB61
:100E1000C60445F836806360CB6883B144F6F2754A
:100E200004F1080303320024C0F60005161956F831
:100E3000036C1E51CE680434AE5DB442F6D301217A
:100E400001FA0CF1CEF8CC1081650020BDE8F081EC
:100E500090F85C20013A012A14D880B50A68BAB12A
:100E600001F1040E9EE80450D1E90431406C43EADC
:100E70004E7E41EA8C7100EBC20340F832E05960CB
:100E8000002080BD016E41F0020101660120704723
:100E9000D1E90323D1E901CED206496942EA8E7233
:100EA00042EA0342006C114340F82C10002080BD40
:100EB00090F85CC0BCF1010F14D180B500689200BD
:100EC000D0F880C0DDF808E042EA011141EA4301B0
:100ED0002CF03F0C41EA0E0141EA0C01C0F88010F1
:100EE000002080BD016E41F00401016601207047C1
:100EF00070470000704700002DE9F04390F85C70E7
:100F0000022F0FD104684029A44613D15CF8907FCA
:100F10003F071BD0DCF800704FF0480EFF0113D5DF
:100F200009251CE0016E41F0080101660120BDE8C1
:100F3000F08300BF5CF8987F3F0707D0DCF80070B3
:100F40004FF04C0EFF0109D400240DE0016E41F476
:100F5000807101660120BDE8F08300BF0825D4F848
:100F60008040EC4004F00104DCF80070C7F3012776
:100F700007EB040C50F80E700CEBCC0657F836500B
:100F800007EBC60E15F08045556057F8365025F032
:100F9000604408BFC5F38A44146057F8365005F022
:100FA0000055956057F8364004F000441461BEF8CF
:100FB0000440D461BEF8064014F00F04D460DEF89B
:100FC000044004F480145461DEF8044004F4001476
:100FD00094619EF8074004F07F041462DEF8044038
:100FE0004FEAD474546228D044F6F2780024C0F654
:100FF000000800BF0EEB0406377A651C1F55D76842
:1010000018F80770BD4218D2757A1F197D70D5681F
:1010100018F80590A51C4D450FD2B57ABD70D5685E
:1010200018F80590E51C4D4507D2F57A0434FD709B
:10103000D56818F80550AC42DCD3006840290CBFD5
:10104000C0F894C0C0F89CC00020BDE8F083000048
:10105000704700002DE9F04F85B004460068016D2F
:10106000426DD0F850B0456D076D466D036D01EAD5
:1010700002080493436D0393036D0293436D019340
:10108000D0F854A0D0F850905FEA496307D51AF021
:10109000400104D0402101652046FFF7D9FF0BEA4B
:1010A000050B5FEAC95008F4E0550ED51AF48070BC
:1010B0000BD02068D0F8D810D0F8E02011404FF4C1
:1010C00080720265204600F053FB37400BF00706A4
:1010D0002DB1206829460565204600F04DFB07F03C
:1010E00038052EB1206831460665204600F092FA98
:1010F0002DB1206829460565204600F0F3FA5FEA25
:10110000895009D51AF4007006D020684FF4007198
:101110000165204600F032FB5FEA09600DD51AF048
:1011200080000AD02068D0F8D410D0F8DC2011401C
:1011300080220265204600F01DFB5FEA894009D548
:101140001AF4005006D020684FF400510165204683
:1011500000F00CFB5FEA0940DDE9011000EA01053F
:1011600009D51AF4004006D020684FF4004101650B
:10117000204600F0F9FADDE9031008405FEA494132
:1011800005F460210AD51AF4804207D022684FF492
:1011900080431365226E42F08002226600F47105DE
:1011A00021B1206801652046FFF7A4FE25B1206823
:1011B0000565206E28432066206E28B1204605B0C4
:1011C000BDE8F04FFFF794BE05B0BDE8F08F00001A
:1011D000002804BF01207047F0B581B0044690F8A4
:1011E0005C0028B9002084F85D00204600F024F956
:1011F0002068816921F01001816100F0BBFB054688
:1012000020688169090705D500F0B4FB401B0B2855
:10121000F6D310E0816941F00101816100F0AAFB81
:10122000054600BF20688169C9070FD100F0A2FB05
:10123000401B0B28F6D3206E032140F001002066EE
:10124000012084F85C1001B0F0BD00BF826946F255
:10125000004CC4F2000C42F002026045826102D1EF
:101260006268CCF80021227C8369012A23F04003C4
:1012700018BF40338361627C8369012A23F4804371
:1012800008BF03F580438361A27C8369012A23F4AC
:10129000805318BF03F5805383618569D4E902E365
:1012A00025F4407545EA0E058561856925F0A4059C
:1012B0008561056925F0100505619BB1012B0DD0F5
:1012C000022B09D08569032B45F0800585610569EE
:1012D00045F01005056105D1202300E00423856950
:1012E0002B43836104F114052ACD226A6FF0FF07B6
:1012F0005E1E07EB052545EA4665013A2A430025AF
:10130000CFF6FF7505EB01411143BEF5407FC1618A
:1013100010D104F1240646CE236B013A07EB0627D1
:101320003A436FF00F0707EB03131A4305EB014134
:101330001143C160D4E90D13E26BD0F8C0704AF2DA
:1013400050763A43C0F8C0200CF580670CF5804217
:10135000B84204BF4AF25072C4F200020CF50067B2
:10136000C4F20006B84208BF06F554722264D0F8F1
:10137000807027F4F81747EA0141C0F8801002F1A5
:1013800070016164D0F8801021F0706141EA03615E
:10139000C0F8801002F1B000A06402F5C470E064EF
:1013A00002F51870206502F51E70606502F5547034
:1013B000002100BFC2E90011C2E90211C2E9041113
:1013C000C2E90611C2E90811C2E90A11C2E90C1109
:1013D000C2E90E11C2E91011C2E91211C2E91411D9
:1013E000C2E91611C2E91811C2E91A11C2E91C11A9
:1013F000C2E91E11C2E92011C2E92211C2E9241179
:10140000C2E92611C2E92811C2E92A11C2E92C1148
:10141000C2E92E11C2E93011C2E93211C2F8D0106E
:10142000D4328242C6D300200121A065206684F810
:101430005C1001B0F0BD000070B59CB00446002007
:101440001B90CDE91900CDE9170002A85421FEF741
:10145000E1FF206846F60041C4F20001884200F036
:10146000938046F60001C4F20001884256D046F24D
:101470000041C4F20001884240F0CA804FF480501D
:1014800002904FF00070109002A800F0B9FB002805
:1014900018BFFFF775FA40F26C51C2F200010A68FA
:1014A00041F24C00C4F20200531C0B6042B9C16807
:1014B00041F00071C160C16801F0007101910199B2
:1014C0000168022441F0010101600168002501F07A
:1014D0000101019101990168092641F008010160AB
:1014E000006817A900F00800019001984FF400600F
:1014F00017904FF090401894CDE919551B9600F0C5
:1015000059F940F20040C4F60000CDE91744CDE996
:1015100019551B9600F5006015246EE04FF48050BD
:1015200002904FF00070109002A800F069FB0028B4
:1015300018BFFFF725FA40F26C51C2F200010A68A9
:1015400041F24C00C4F20200531C0B6042B9C16866
:1015500041F00071C160C16801F000710191019911
:101560000168562441F002010160006800F00200A9
:10157000019001984FF440501790022018900020DD
:10158000CDE91900092033E04FF4805002904FF06C
:101590000070109002A800F033FB002818BFFFF77E
:1015A000EFF940F26C51C2F200010A6841F24C00BE
:1015B000C4F20200531C0B6042B9C16841F00071D3
:1015C000C160C16801F0007101910199016858245E
:1015D00041F002010160006800F0020001900198F2
:1015E00018201790022018900020CDE919000B2038
:1015F0001B9040F20040C4F6000017A900F0DAF892
:1016000020460021002200F02DFA204600F018FAB2
:101610001CB070BD10B582B040F29852C2F2000208
:10162000002190420191009108D040F26061C2F225
:101630000001884228D002B010BD00BF40F27054B3
:1016400040F29850C2F20004C2F200006B46402102
:101650002246FFF751FC2068B0F5017F3AD040F2F6
:10166000032188422ED040F202218842E3D140F289
:10167000B140C2F200000121017040F2B340C2F259
:101680000000017002B010BD40F2705440F2606082
:10169000C2F20004C2F200006B4640212246FFF76E
:1016A0002BFC2068A0F20121012903D8694602F031
:1016B00079FA2068411E0129BDD86946FFF7F0F884
:1016C00002B010BD40F2B140C2F20000FF21017033
:1016D00002B010BD40F2B140C2F200000021017022
:1016E00002B010BD10B582B040F2FC52C2F200024E
:1016F000002190420191009102D002B010BD00BFC4
:1017000040F2705440F2FC50C2F20004C2F20000F9
:101710006B4641212246FFF7EFFB2068A0F2032130
:10172000012903D8694602F03DFA2068C11E01294B
:10173000E3D86946FFF7B4F802B010BD90F85C102A
:1017400001290BD1022180F85C1001688A6922F01E
:1017500001028A610021016600207047016E41F09C
:1017600004010166012070477047000070470000C7
:10177000704700007047000070470000704700008D
:10178000042802D0022818BF704740F2C240C2F2BB
:1017900000000178013101707047000040F21441EF
:1017A000C4F201010A68024214BF08607047FFF7E3
:1017B000E7BF00002DE9F04F83B00E68002E00F067
:1017C000CF8000F1200241F2004C009200F1384736
:1017D000C4F6000C06224FEAB725604508BF052273
:1017E000052D38BF4FEAB722002500274FF000082B
:1017F00001920AE00E6808F1010836FA08F207F1D2
:10180000020705F1040500F0AB80012202FA08FE90
:1018100016EA0E09EED0D1F804C003220CF0030B37
:10182000ABF1010602FA07F4012E6FEA040A11D89F
:101830008468CE6804EA0A04BE4034438460446885
:1018400024EA0E06CCF3001404FA08F4264346609A
:1018500006E000BFBBF1030F02D14FF0030B21E004
:10186000C6688C6806EA0A06BC402643BBF1020F34
:10187000C66017D16FF00302009B02EA580605F01C
:101880001C020F2453F806C004FA02FE0C692CEA6D
:101890000E0C04FA02F242EA0C029A51D1F804C08A
:1018A0000CF0030B02680BFA07F302EA0A021A4370
:1018B0001CF4403F02609DD041F26003C4F2020379
:1018C0001A6840F2004E42F001021A601A68C4F22F
:1018D000010E02F001020292029A28F003024FF672
:1018E000084C7244CFF6FF7C52F80C3005F00C0621
:1018F0000F24B440A343019C04FA06F6334342F894
:101900000C30DEF808204B6842EA090640F20C4C25
:10191000DC0258BF22EA0906CEF80860C4F2010CC6
:10192000DCF800209C0242EA090658BF22EA0906B8
:10193000CCF80060DEF804209C0342EA090658BF98
:1019400022EA0906CEF80460DEF80020DB0342EA52
:10195000090658BF22EA0906CEF800604AE700BF30
:1019600003B0BDE8F08F00001823002A08BF282329
:10197000C150704740F68800C2F20000006870470E
:1019800040F2000040F68801C2F20000C2F20001FD
:1019900040680A68104408607047000080B5032062
:1019A00000F08CF80F2000F009F800281CBF01207F
:1019B00080BD00F02BF8002080BD0000B0B540F2E3
:1019C0000005C2F200056968F1B1044640F24C40DE
:1019D000C2F200004FF47A720068B2FBF1F1B0FB82
:1019E000F1F000F0D1FE01460F2C4FF001000AD8B3
:1019F000002918BFB0BD4FF0FF302146002200F093
:101A000031F800202C60B0BD0120B0BD82B041F2A1
:101A10005800C4F20200816841F0010181608168D0
:101A200001F0010101910199016841F080510160CB
:101A3000006800F080500090009802B000F0D6B826
:101A4000002848BF704700F01F01012202FA01F18F
:101A50001C2202EAD0004EF20012CEF200028150A7
:101A60007047000010B54EF60C5CCEF2000CDCF8AE
:101A70000030C3F3022E8EF00704042C28BF042488
:101A8000BEF103034FF0FF3E0EFA04F438BF00230B
:101A9000A14399400EFA03F39A43114300F00F0259
:101AA00000F160430901043A03F5644362440028ED
:101AB00048BF02F10C03197010BD00004EF60C5126
:101AC000CEF200010A684FF6FF031A4060F30A22C3
:101AD00042F0806040F0FD700860704747F21401EA
:101AE000C4F2000151F8142CB0F5007F3CD000285E
:101AF00074D1C86E02F4C06220F48070B2F5806FB9
:101B0000C8662FD151F8140C012262F34A2041F823
:101B1000140C40F24C40C2F20000006832225043E4
:101B20004DF68362C4F21B32A0FB0202900C00BF90
:101B30000A68520511D5421C0FD00A6852050CD50F
:101B400058B10A68520508D5012806D00A6852051E
:101B500003D50228A0F10400EAD10868400544BF7B
:101B60000320704700207047C86E02F4C06240F442
:101B70008070B2F5806FC866F4D151F8140C012260
:101B800062F34A2041F8140C40F24C40C2F20000CB
:101B90000068322250434DF68362C4F21B32A0FB30
:101BA0000202900C0A68520511D5421C0FD00A6837
:101BB00052050CD558B10A68520508D5012806D03F
:101BC0000A68520503D50228A0F10400EAD108688A
:101BD000400544BF03207047C4E700BF022060F304
:101BE0004A2241F8142C00207047000047F20800F8
:101BF000C4F20000016841F48041016070470000B8
:101C00002DE9F04182B00446807841F28806000751
:101C1000C4F2020602D400202FE000BF56F8300CB8
:101C20005FEAC0080BD456F8300C40F0805046F8FC
:101C3000300C56F8300C00F080500190019847F2BB
:101C40000007C4F20007386840F480703860FFF77E
:101C500091FE05463868C00500F10C81FFF78AFE49
:101C6000401B0228F6D90320B8F1000F05D456F81E
:101C7000301C21F0805146F8301C2168CA0717D16A
:101C80008A071DD44A0723D40A0729D4CA062FD4A9
:101C90008A0635D44A063BD40A0641D4CA0547D43D
:101CA0008A034DD48A0553D44A0559D467E000BF4E
:101CB0003268636822F003021A4332608A07E1D572
:101CC0003268A36822F00C021A4332604A07DBD55F
:101CD0003268E36822F030021A4332600A07D5D531
:101CE0003268236922F0C0021A433260CA06CFD597
:101CF0003268636922F440721A4332608A06C9D599
:101D00003268A36922F440621A4332604A06C3D59E
:101D10003268E36922F440521A4332600A06BDD5A4
:101D20003268236A22F440421A433260CA05B7D5AA
:101D30003268636A22F440321A4332608A03B1D5B2
:101D40007269A36A22F003021A4372618A05ABD555
:101D50003268E36A22F440221A4332604A050ED503
:101D60003268236B22F440121A43B3F5801F3260AD
:101D700005D156F87C2C42F4801246F87C2C0A05DA
:101D80000ED53268636B22F440021A43B3F5800F1C
:101D9000326005D156F87C2C42F4801246F87C2C37
:101DA000CA040ED53268A36B22F040721A43B3F115
:101DB000807F326005D156F87C2C42F4801246F8C0
:101DC0007C2C8A040ED53268E36B22F040621A4301
:101DD000B3F1006F326005D156F87C2C42F48012CA
:101DE00046F87C2C4A040ED53268236C22F04062FF
:101DF0001A43B3F1006F326005D156F87C2C42F4DF
:101E0000801246F87C2C0A040ED53268636C22F0EE
:101E100040521A43B3F1805F326005D156F87C2CF2
:101E200042F4803246F87C2CCA030ED53268A36C8B
:101E300022F040421A43B3F1804F326005D156F888
:101E40007C2C42F4803246F87C2C49030ED5716913
:101E5000E26C21F440111143B2F5001F716105D10C
:101E600056F87C1C41F4801146F87C1C02B0BDE899
:101E7000F08100BFB06810F4407010D0216D88422E
:101E80000BD0B068B16820F4407041F48031B1608B
:101E9000B16821F48031B160B060C0070CD1B06886
:101EA000216D20F440700843B0600020B8F1000FAD
:101EB0003FF5E3AEDBE600BFFFF75CFD054641F210
:101EC000883700BFB0688007E9D4FFF753FD401B97
:101ED000B842F7D9C7E600002DE9F047002863D0E3
:101EE00042F2000AC4F2020A0446DAF800000D4683
:101EF00000F00F0088420CD2DAF8000020F00F004A
:101F00002843CAF80000DAF8000000F00F00A842E9
:101F10004AD1216841F20808C807C4F2020803D177
:101F2000880740F1D080B5E0606858F8082C022896
:101F300038D003283CD1920136D5D8F80420D8F8FF
:101F4000043042F20046C3F3031302F00302D8F850
:101F500004700133C0F2F406032A04BF47F64006BA
:101F6000C0F27D16B6FBF3F2D8F80430C7F30627AB
:101F70007A43C3F34163022707EB4303B2FBF3F257
:101F80004BF20043C0F2C4439A4259D9D8F800201A
:101F900012F0F00F49D0890752D5A16800294FD11E
:101FA00043E000BF910305D40120BDE8F08700BFE6
:101FB0005105F9D5D8F8001001F00C0104293FD0E3
:101FC000D8F8001001F00C01082939D0D8F8001019
:101FD00001F00C010C2933D1D8F80410D8F80420F2
:101FE00042F20047C2F3031201F00301D8F80430B3
:101FF0000132C0F2F407032904BF47F64007C0F2DC
:102000007D17B7FBF2F1D8F80420C3F30623594338
:10201000C2F34162022303EB4202B1FBF2F14BF245
:102020000042C0F2C44291420AD9D8F800100822F6
:1020300062F307114FF00109C8F8001002E000BF79
:102040004FF00009D8F8001021F003010843C8F848
:102050000000FFF78FFC064641F28837D8F80000F1
:10206000616800F00C00B0EB810F07D0FFF782FC35
:10207000801BB842F2D90320BDE8F08721688807A9
:1020800008D4B9F1000F1ED0D8F8000020F0F000FD
:1020900017E000BF480705D5D8F8000040F4E0601D
:1020A000C8F80000080706D5D8F80000072262F338
:1020B0000D20C8F80000D8F80000A26820F0F00059
:1020C0001043C8F80000DAF8000000F00F00A84242
:1020D0001BD9DAF8000020F00F002843CAF80000EE
:1020E000FFF748FC064641F2883700BFDAF80000E7
:1020F00000F00F00A84207D0FFF73CFC801BB8425D
:10210000F4D90320BDE8F0872168480707D5D8F83F
:102110000000E26820F4E0601043C8F800000807FF
:1021200008D5D8F80000216920F4605040EAC100C9
:10213000C8F80000D8F8000042F20041C0F2F401F3
:1021400000F00C00042808462DD0D8F8000000F05C
:102150000C00082847F64000C0F27D1023D0D8F8C4
:10216000002002F00C020C2A1CD1D8F80420D8F868
:10217000043002F00302C3F30313D8F804700133F0
:10218000032A08BF0146B1FBF3F0D8F80410C7F3E7
:102190000627C1F341610222784302EB4101B0FB03
:1021A000F1F000E00020D8F8001044F6C272C1F34C
:1021B0000311C0F60002515C40F24C4201F01F01D5
:1021C00020FA01F140F20000C2F200000068C2F201
:1021D00000021160BDE8F047FFF7F0BB40F24C4051
:1021E00041F20801C2F20000C4F20201006809686D
:1021F00044F6D272C1F30221C0F60002515C01F034
:102200001F01C8407047000040F24C4041F20801F5
:10221000C2F20000C4F202010068096844F6D272FA
:10222000C1F3C221C0F60002515C01F01F01C84099
:102230007047000041F20C01C4F2020151F8040C95
:1022400042F20042C0F2F40200F00C0004281046F2
:1022500008BF704751F8040C00F00C00082847F63E
:102260004000C0F27D1025D051F8043C03F00C036F
:102270000C2B1CBF0020704780B5D1F800C00B6844
:102280000CF0030CC3F3031E0B680EF1010EBCF13E
:10229000030F08BF02460968B2FBFEF0C3F3062332
:1022A000C1F341610222584302EB4101B0FBF1F05E
:1022B000BDE8804070470000002804BF012070473F
:1022C0002DE9F04182B00446007841F20006C007D3
:1022D000C4F202061ED1207880073DD42078000782
:1022E00064D42078400700F187802078800600F1D0
:1022F000D980E569002D00F04282B06800F00C0042
:102300000C2840F03181012D40F08E81012002B077
:10231000BDE8F081B06800F00C01F068082961D0D8
:10232000032281F00C0122EA00000844B0FA80F098
:10233000400957D161683068B1F5803F07D0B1F5E9
:10234000A02F40F0E38040F480203060306840F4FB
:1023500080303060E4E000BFB068F16800F00C004D
:10236000042871D001F0030180F00C0081F002011B
:102370000844B0FA80F0400966D1E168306800296D
:1023800000F0E08040F480703060FFF7F3FA05461B
:102390003068400500F10A81FFF7ECFA401B022883
:1023A000F6D9032002B0BDE8F08100BF6169D6F81C
:1023B0009400002900F0948040F00100C6F89400D9
:1023C000FFF7D8FA054600BFD6F8940080073FF51E
:1023D00088AFFFF7CFFA401B0228F5D9032002B0DF
:1023E000BDE8F081306880037FF575AF6068002834
:1023F0007FF471AF3EE000BFB06D5FEAC00808D463
:10240000B06D40F08050B065B06D00F0805001902C
:10241000019847F20007C4F200073868C0052DD4C0
:10242000386840F480703860FFF7A4FA054600BFB2
:102430003868C00522D4FFF79DFA401B0228F7D95F
:10244000032002B0BDE8F0813068400501D5E068A6
:1024500080B17068216920F0FE4040EA0160706040
:1024600040F20000C2F200000068FFF7A7FA00285F
:102470003FF434AF012002B0BDE8F081A168D6F886
:102480009000012908D0052940F0AE8040F00400FA
:10249000C6F89000D6F8900040F00100C6F8900011
:1024A000AEE000BFA169D6F89800002900F0868050
:1024B00040F00100C6F89800FFF75CFA054600BF3F
:1024C000D6F8980080073FF514AFFFF753FA401B8A
:1024D00002284FF00300F3D902B0BDE8F08100BF3D
:1024E00020F00100C6F89400FFF744FA054600BF4B
:1024F000D6F8940080077FF5F4AEFFF73BFA401B57
:102500000228F5D9032002B0BDE8F08120F4803024
:1025100030603068002920F48020306000F0BE80F8
:10252000FFF728FA054600BF306880033FF5D3AEB9
:10253000FFF720FA401B6428F6D9032002B0BDE85B
:10254000F08100BF20F480703060FFF713FA054679
:10255000306840057FF5C2AEFFF70CFA401B022839
:102560004FF00300F4D9B7E7306820F08070306096
:10257000FFF700FA022D05460CD100BF306880013C
:1025800040F1B880FFF7F6F9401B02284FF0030036
:10259000F4D9A1E73068800140F1EA80FFF7EAF959
:1025A000401B02284FF00300F4D995E770682169B9
:1025B00020F0FE4040EA016070608FE620F00100EC
:1025C000C6F89800FFF7D6F9054600BFD6F8980080
:1025D00080077FF58EAEFFF7CDF9401B02284FF044
:1025E0000300F3D978E700BF20F00100C6F890009F
:1025F000D6F89000002920F00400C6F890005DD0C5
:10260000FFF7B8F9054641F2883700BFD6F89000C9
:10261000800765D4FFF7AEF9401BB842F6D9032016
:1026200002B0BDE8F08100BFF068216A00F003024B
:102630008A427FF41FAF626A6FF00F0300F0F0016F
:1026400003EB021291427FF415AFA16A00F4FE423F
:10265000B2EB012F7FF40EAFE16A00F07842B2EBEB
:10266000C16F7FF407AF226B0023CFF6E07303EA5C
:10267000025200F4C001A2F5001291427FF4FAAEBA
:10268000616B4FF07E4202EA016100F0C06001F12F
:102690007E4188427FF4EEAE71E000BFFFF76AF939
:1026A000054600BF306880037FF515AEFFF762F97D
:1026B000401B64284FF00300F4D90DE7FFF75AF9E7
:1026C000054641F2883700BFD6F89000800707D54D
:1026D000FFF750F9401BB8424FF00300F4D9FBE676
:1026E000B8F1000F3FF501AEB06D20F08050B0653D
:1026F000FBE500BFF06848F20C01C0F29F1104F145
:10270000200700EA010C8ECF6FF00F00D4E90C54C3
:1027100000EB02100022CFF6E07241EA0C0102EA5F
:1027200005520843A2F500124FF07E4540EA03200F
:1027300005EA0465104305F17E4540EAC760284379
:10274000F060306840F080703060F06840F0807079
:10275000F060FFF70FF90446306880010FD4FFF7EF
:1027600009F9001B02284FF00300F5D9B4E600BFB9
:10277000F0684FF6FC71CFF6EE610840F060002083
:1027800002B0BDE8F0810000411E0020B0EB116FE7
:102790001CBF012070474EF21002CEF200025160C1
:1027A0004EF62351CEF20001F0230B70072190600A
:1027B00011607047704700007047000070470000CC
:1027C00070470000704700007047000090F83C2000
:1027D000012A4FF0020266D070B580F83D200268F1
:1027E00042F6004C54689368C4F2010C45F2000EA6
:1027F0006245C4F2010E18BF72452BD14D6824F416
:1028000070042C434FF68F75CFF6FF550E682C40A1
:1028100042F6FF35C4F201053443AA4254600DDC90
:1028200040F2FF76C4F20006B2421BDCB2F1804FE8
:102830002CD040F20046C4F2000625E043F6FF74B7
:10284000C4F20104A24219DC62451FD043F20046E3
:1028500018E000BF43F20045C4F20105AA42CDD002
:10286000D0E700BF40F60006C4F20006B2420DD029
:1028700040F60046C4F2000606E000BF724505D0EF
:1028800044F20006C4F20106B24204D1896823F082
:102890008003194391600121002280F83D1080F8E7
:1028A0003C20BDE8704010467047000070470000B3
:1028B000002804BF0120704710B5044690F83D0081
:1028C00028B9002084F83C00204600F023F80220BC
:1028D00084F83D002068211D01F04CFD012084F8A2
:1028E000480084F83E0084F83F0084F8400084F8F3
:1028F000410084F8420084F8430084F8440084F8DE
:10290000450084F8460084F8470084F83D00002024
:1029100010BD00000068A0F18040A0F500604FEA03
:10292000B020032888BF704710B582B0DFE800F000
:10293000022C101E41F25800C4F2020001681E244D
:1029400041F004010160006800F0040028E000BFCD
:1029500041F25800C4F202000168362441F010012F
:102960000160006800F010001AE000BF41F258005A
:10297000C4F202000168372441F0200101600068C0
:1029800000F020000CE000BF41F25800C4F2020049
:102990000168322441F008010160006800F008007D
:1029A00001900198204600210022FFF75BF82046A5
:1029B00002B0BDE81040FFF743B8000090F83D10AA
:1029C00001291BD1022180F83D10016842F6FF3237
:1029D000C868C4F20102914240F00100C8600FDCF7
:1029E00040F2FF70C4F20000814219DCB1F1804F67
:1029F0002ED040F20040C4F2000027E001207047D2
:102A000043F6FF70C4F20100814215DC42F600403B
:102A1000C4F2010081421BD043F2004014E000BF29
:102A200040F60000C4F20000814211D040F60040A0
:102A3000C4F200000AE000BF45F20000C4F2010049
:102A4000814205D044F20000C4F2010081420CD161
:102A500088680722C0F201020240062A4FF00000F7
:102A6000CDD0B2F5803F08BF7047086840F0010044
:102A7000086000207047000090F83C20012A4FF0C9
:102A8000020200F0998080B580F83D20D0F800C0A7
:102A90008822DCF80830CFF6CE721A40CCF8082035
:102AA0000B68B3F5005F0DDA3F2B21DD5F2B3BDDBB
:102AB000602B00F0AB80702B00F09480B3F5805F4A
:102AC00071D0E7E02F22C0F21002934218DD4F21AF
:102AD000C0F210018B424FDD5021C0F210018B4239
:102AE00055D06021C0F210018B4250D0702149E0D6
:102AF0001F2B0FDC002B4AD0102B48D0CAE000BFA0
:102B0000B3F1101F0CDAB3F5005F57D0B3F5801F97
:102B10003DD0BFE0202B3AD0302B38D0BAE000BFF8
:102B200035D020212EE000BF402B00F09180502BAB
:102B300040F0B080D1F804E0C968DCF82030DCF85F
:102B4000202022F00102CCF82020DCF8182022F00E
:102B5000F00242EA011123F00A0242EA0E02CCF826
:102B60001810CCF82020DCF808104FF68872CFF649
:102B7000CF721140573114E03021C0F210018B4266
:102B800005D04021C0F210018B4240F08380DCF878
:102B900008104FF68872CFF6CF721140194341F0FA
:102BA0000701CCF808100022012180F83D10002117
:102BB00080F83C10BDE8804010467047D1E901E341
:102BC000C968DCF8082043EA0E0322F47F4243EA96
:102BD00001211143CCF80810DCF8081041F48041C1
:102BE000DFE700BFD1E901E3C968DCF8082043EA68
:102BF0000E0322F47F4243EA01211143CCF808106E
:102C0000DCF8081041F07701CBE700BFD1F804E011
:102C1000C968DCF82030DCF8202022F01002CCF863
:102C20002020DCF8182022F4704242EA013123F01F
:102C3000A00242EA0E12CCF81810CCF82020DCF8E2
:102C400008104FF68872CFF6CF7211406731A8E7AF
:102C5000D1F804E0C968DCF82030DCF8202022F04C
:102C60000102CCF82020DCF8182022F0F00242EA21
:102C7000011123F00A0242EA0E02CCF81810CCF837
:102C80002020DCF808104FF68872CFF6CF72114082
:102C9000473186E7012287E770470000F0B581B031
:102CA00004460068C5680669B10717D515F002012A
:102CB00014D06FF002010161012121778069800742
:102CC00004D02046FFF7E8FF06E000BF204600F0F2
:102CD000CBF8204600F0CAF800202077700719D5FD
:102CE00015F0040016D020686FF004010161022184
:102CF0002177806910F4407F04D02046FFF7CCFF95
:102D000006E000BF204600F0AFF8204600F0AEF825
:102D100000202077300717D515F0080014D0206860
:102D20006FF00801016104212177C069800703D099
:102D30002046FFF7B1FF05E0204600F095F8204659
:102D400000F094F800202077F00619D515F0100057
:102D500016D020686FF01001016108212177C06949
:102D600010F4407F04D02046FFF796FF06E000BF36
:102D7000204600F079F8204600F078F8002020770F
:102D8000F00718BF15F0010006D020686FF00101B0
:102D90000161204600F06CF816F4025F05F0800730
:102DA00018BF002F02D1F00509D410E020686FF49D
:102DB000025101612046FFF7FFFCF00507D537B14E
:102DC00020686FF4807101612046FFF7F3FC700604
:102DD00009D515F0400006D020686FF04001016170
:102DE000204600F075F8B00609D515F0200006D091
:102DF00020686FF0200101612046FFF7DFFCF00240
:102E000009D515F4801006D020686FF48011016197
:102E10002046FFF7D7FCB00209D515F4001006D004
:102E200020686FF4001101612046FFF7C9FC7002B1
:102E300009D515F4800006D020686FF48001016187
:102E40002046FFF7C1FC30020CD515F4000009D074
:102E500021686FF4000220460A6101B0BDE8F0402D
:102E6000FFF724BD01B0F0BD7047000070470000BF
:102E700080B540F2C461C2F20001884218D040F22D
:102E80001071C2F20001884216D040F25C71C2F2A9
:102E90000001884216D040F2A871C2F200018842B7
:102EA00018BF80BDFDF714FCBDE88040FDF7A2BB54
:102EB000BDE8804001F08ABFFDF714FBBDE880400B
:102EC00001F030BF01F0BAF9BDE88040FDF766BC03
:102ED0007047000090F88410012904BF0220704759
:102EE0002421C0F8881001680A680B6822F000529B
:102EF00023F001030B60002343660A602021C0F821
:102F0000881080F88430002070470000704700006F
:102F10007047000090F88420012A04BF0220704707
:102F2000B0B52422C0F888200268D0F864E0D2F856
:102F300000C01368BEF1000F23F001031360936813
:102F400023F0606341EA0301916019D093689168AE
:102F500045F2140E490FC0F6000E45F21C051EF88E
:102F60000140C0F60005695CC3F34263E400B4FBB2
:102F7000F1F11EF80340EB5CE500B5FBF3F301E073
:102F800001210123A0F86A102021A0F86830C2F8BE
:102F900000C0C0F88810002180F884100020B0BD67
:102FA00090F88420012A04BF02207047B0B5242283
:102FB000C0F888200268D0F864E0D2F800C0136836
:102FC000BEF1000F23F001031360936823F0604308
:102FD00041EA0301916019D09368916845F2140E9B
:102FE000490FC0F6000E45F21C051EF80140C0F660
:102FF0000005695CC3F34263E400B4FBF1F11EF821
:103000000340EB5CE500B5FBF3F301E00121012394
:10301000A0F86A102021A0F86830C2F800C0C0F8FB
:103020008810002180F884100020B0BD7047000097
:10303000704700007047000070B5026840F62F042A
:10304000D369116896681C40202C0BD101F0200434
:1030500006F080552D1916D0416F61B3BDE8704060
:10306000084700BF40F60F052B420CD00125C1F2E6
:10307000000506EA050C40F22015C0F200450D409F
:1030800015EB0C0524D1C46EDD0615D5012C13D12A
:1030900011F0100510D0102111629168490661D419
:1030A000B0F85C10B0F85E20B0F85E30002B18BFAE
:1030B000914240F0518270BDDD0215D516F48005B5
:1030C00012D04FF480111162BDE87040FFF7B0BF1D
:1030D000DD0718BF11F4807540F020819D0706F0D0
:1030E000010E00F1278130E11A0606D501F08002B9
:1030F00006F40006921940F0AF825A0640F10281B0
:1031000011F0400200F0FE80016851E8001F0268E3
:1031100021F0400142E80013DBB1016851E8001FD3
:10312000026821F0400142E8001393B1016851E8C0
:10313000001F026821F0400142E800134BB1016812
:1031400051E8001F026821F0400142E80013002B03
:10315000DAD12021C0F8881000218167BDE87040D5
:1031600000F016BBD0F880100A685368B0F85C40D5
:1031700099B2002900F0B880A14280F0B580A0F893
:103180005E301168890600F1A38000BF016851E834
:10319000001F026821F4807142E80013E3B1016866
:1031A00051E8001F026821F4807142E800139BB1CE
:1031B000016851E8001F026821F4807142E80013A1
:1031C00053B1016851E8001F026821F4807142E8A0
:1031D0000013002BDAD100BF016851E8021F02681A
:1031E00021F0010142E80213BBB3016851E8021F5C
:1031F000026821F0010142E8021373B3016851E84B
:10320000021F026821F0010142E802132BB301689A
:1032100051E8021F026821F0010142E80213002B6D
:10322000DAD11AE0016851E8021F026821F040017A
:1032300042E80213DBB1016851E8021F026821F085
:10324000400142E8021393B1016851E8021F02688D
:1032500021F0400142E802134BB1016851E8021F1E
:10326000026821F0400142E80213002BDAD120214C
:10327000C0F88C100021C166016851E8001F026887
:1032800021F0100142E80013DBB1016851E8001F92
:10329000026821F0100142E8001393B1016851E87F
:1032A000001F026821F0100142E800134BB10168D1
:1032B00051E8001F026821F0100142E80013002BC2
:1032C000DAD1D0F8801004460846FDF753FC2046BA
:1032D00002210167B0F85C10B0F85E20891A89B24B
:1032E000BDE87040FFF712BE8C427FF4E4AE126876
:1032F00092067FF5E0AE02220267BDE87040FFF75C
:1033000005BE00BF1A0240F1B38111F0804200F007
:10331000AF81BDE87040FFF789BE00BF012515628F
:10332000D0F8905045F00105C0F890509D0706F088
:10333000010E0AD5BEF1000F07D002241462D0F8A6
:10334000904044F00404C0F890405C070AD5BEF1F8
:10335000000F07D004251562D0F8905045F0020503
:10336000C0F890501D070CD501F0200555EA0C055A
:1033700007D008251562D0F8905045F00805C0F830
:1033800090501D050BD511F0806508D04FF40065F5
:103390001562D0F8905045F02005C0F89050D0F854
:1033A0009050002D3FF487AE9B060BD501F0200115
:1033B00006F08053C91805D0416F19B104468847FB
:1033C00022682046D0F89010926801F0280102F09F
:1033D0004002891806D10446FFF72CFE0020C4F8ED
:1033E000900070BD016851E8001F026821F49071DF
:1033F00042E80013DBB1016851E8001F026821F4C4
:10340000907142E8001393B1016851E8001F02680F
:1034100021F4907142E800134BB1016851E8001F9C
:10342000026821F4907142E80013002BDAD14FF6C4
:10343000FE71CEF6FF7100BF026852E8022F0368EA
:103440000A4043E80226C6B1026852E8022F036828
:103450000A4043E8022686B1026852E8022F036858
:103460000A4043E8022646B1026852E8022F036888
:103470000A4043E80226002EDED1C16E012924D184
:10348000016851E8001F026821F0100142E80013B2
:10349000DBB1016851E8001F026821F0100142E829
:1034A000001393B1016851E8001F026821F0100178
:1034B00042E800134BB1016851E8001F026821F097
:1034C000100142E80013002BDAD12021C0F88C1043
:1034D0000021C166026841679168490640F1C480D5
:1034E000016851E8021F026821F0400142E802131E
:1034F000DBB1016851E8021F026821F0400142E897
:10350000021393B1016851E8021F026821F04001E3
:1035100042E802134BB1016851E8021F026821F032
:10352000400142E80213002BDAD1D0F880100029C4
:1035300000F09A8044F22972C0F600020446084660
:103540008A63FDF74FFB00283FF4B5ADD4F8800047
:10355000816BBDE870400847891A00BF026852E8D5
:10356000002F036822F4907243E80026DEB102685F
:1035700052E8002F036822F4907243E8002696B1C7
:10358000026852E8002F036822F4907243E8002694
:103590004EB1026852E8002F036822F4907243E8AB
:1035A0000026002EDAD14FF6FE72CEF6FF7200BF73
:1035B000036853E8023F0668134046E80235C5B188
:1035C000036853E8023F0668134046E8023585B1B8
:1035D000036853E8023F0668134046E8023545B1E8
:1035E000036853E8023F0668134046E80235002DA1
:1035F000DED12022C0F88C200022C266426700BFC4
:10360000026852E8002F036822F0100243E8002607
:10361000DEB1026852E8002F036822F0100243E88E
:10362000002696B1026852E8002F036822F01002CB
:1036300043E800264EB1026852E8002F036822F0EA
:10364000100243E80026002EDAD1022289B2026776
:10365000BDE87040FFF75ABC816F00293FF42BADE5
:10366000BDE87040084700BFBDE87040FFF7E2BC0E
:10367000DA017FF520ADB1F1FF3FC8BF70BDBDE8F5
:103680007040FFF745BC000010B5D0B10446D0F83B
:10369000880028B9002084F88400204600F026F82D
:1036A0002420C4F888002068A16A026822F0010280
:1036B000026011B1204600F00DFF204601F03AF8FB
:1036C00010B1012010BD00BF2168486820F490406F
:1036D0004860886820F02A008860086840F001028D
:1036E00020460A60BDE8104000F068BF10B59CB0ED
:1036F000044600201B90CDE91900CDE9170002A86F
:1037000004305021FCF786FE206844F60041C4F2E4
:103710000001884202D01CB010BD00BF08200290FA
:1037200002A8FEF76DFA002818BFFDF729F941F24B
:103730004C00C4F20200C16841F40021C160C168BC
:1037400001F4002101910199016841F00401016037
:10375000006817A900F00400019001984FF4406040
:103760001790022018900020CDE9190005201B9029
:1037700040F60000C4F60000FEF71CF834200021DB
:103780000022FEF76FF93420FEF75AF91CB010BD85
:1037900070470000FEE7000080B540F2985046F206
:1037A0000041C2F20000C4F200010022C0E9001290
:1037B000052108234FF0190CC0E90511C0E90931B2
:1037C0000121C0E90222C0F80F20C0E907C3C0E907
:1037D0000BC3C0E90D12C263FDF7FAFC002808BF55
:1037E00080BDBDE88040FDF7CBB8000080B540F259
:1037F000FC5046F60001C2F20000C4F200010022B3
:10380000C0E90012052108234FF0190CC0E9051189
:10381000C0E909310121C0E90222C0F80F20C0E946
:1038200007C3C0E90BC3C0E90D12C263FDF7D0FCAA
:10383000002808BF80BDBDE88040FDF7A1B80000AA
:1038400080B540F2606046F60041C2F20000C4F26A
:1038500000010022C0E90012052108234FF0190CD5
:10386000C0E90511C0E909310121C0E90222C0F80F
:103870000F20C0E907C3C0E90BC3C0E90D12C26342
:10388000FDF7A6FC002808BF80BDBDE88040FDF71D
:1038900077B800002DE9F04186B0002641F24C00D7
:1038A0000596CDE90366CDE90166C4F20200016820
:1038B00041F2000441F0040101600168C4F6000413
:1038C00001F00401009100990168002241F02001FB
:1038D000016001684FF4086801F02001009100992F
:1038E000016841F010010160016801F010010091D0
:1038F0000099016841F002010160016801F00201D4
:1039000000910099016841F001010160016801F036
:10391000010100910099016841F00801016000680F
:103920004FF4086100F00800009000982046FEF770
:103930001BF8062001904FF4881001AD029001277A
:10394000A4F5006029460397FDF734FF0220CDE976
:10395000030620462946CDE90187FDF72BFF072006
:1039600000210022FEF77EF80720FEF769F8082004
:1039700000210022FEF776F80820FEF761F806B075
:10398000BDE8F08180B588B040F2C46040F6000226
:103990000021C2F20000C4F20002A92342F20F7C0F
:1039A0000791CDE905110291C0E90023C0E9021C8D
:1039B00001618161FEF77CFF002818BFFCF7E0FF82
:1039C0004FF48050049040F2C460C2F2000004A999
:1039D000FFF752F8002818BFFCF7D2FF0020019033
:1039E000039040F2C460C2F2000001A9FEF7EEFEAF
:1039F000002818BFFCF7C4FF08B080BD80B588B0B0
:103A000040F2107040F600420021C2F20000C4F201
:103A10000002A92340F2E73C0791CDE9051102918C
:103A2000C0E90023C0E9021C01618161FEF740FF8B
:103A3000002818BFFCF7A4FF4FF48050049040F218
:103A40001070C2F2000004A9FFF716F8002818BF92
:103A5000FCF796FF00200190039040F21070C2F234
:103A6000000001A9FEF7B2FE002818BFFCF788FF8E
:103A700008B080BD10B584B040F25C7041F2000126
:103A80000024C2F20000C4F2000140F2E7330294C5
:103A9000A92280E81600C3608461FEF709FF0028B0
:103AA00018BFFCF76DFF40F25C70C2F2000001A984
:103AB00001940394FEF78AFE002818BFFCF760FF0C
:103AC00004B010BD10B584B040F2A87041F20041BE
:103AD0000024C2F20000C4F2000140F2E733029475
:103AE000A92280E81600C3608461FEF7E1FE002889
:103AF00018BFFCF745FF40F2A870C2F2000001A910
:103B000001940394FEF762FE002818BFFCF738FF0B
:103B100004B010BD80B540F2F47044F60041C2F22A
:103B20000000C4F2000100234FF00C0C4FF4E1320E
:103B300080E80E00C0E90333C0E905C3C0E90733DC
:103B4000C0E90933FFF7A0FD002818BFFCF718FFF4
:103B500040F2F470C2F200000021FFF721FA0028C1
:103B600018BFFCF70DFF40F2F470C2F20000002114
:103B7000FFF7D0F9002818BFFCF702FF40F2F470FD
:103B8000C2F20000FFF7A6F9002808BF80BDBDE81B
:103B90008040FCF7F5BE0000FEE70000FEE70000F5
:103BA0007047000040F22C52C0EBC000C2F200028D
:103BB00010448A88A0F60760828109688160704796
:103BC000042988BF704780B54DF6F003CFF6FF7328
:103BD0009842C8BF034642F210708342A8BF034612
:103BE00001F07F0040F22C51C2F2000101EB400CC9
:103BF00018BA4FEA104E10464FF4007208232CF802
:103C000002ECBDE88040FCF79FBF000040F260631B
:103C1000421EC2F2000308BF994213D0022808BF17
:103C2000994249D040F2FC530328C2F2000308BF76
:103C3000994200F0D180042808BF994200F05C81CD
:103C4000704700BFD0B2000140F20C0150FA82F080
:103C5000C2F2000101EB800340F20C50C2F20000FE
:103C600090ED023A93ED0F2A83ED000A30EE430AFD
:103C700093ED021AB4EE420AF1EE10FA83ED013A26
:103C800083ED031A08DAB1EE422AB4EE420AF1EEED
:103C900010FAC8BF9FEDDF0A93ED052AB0EEC03AD7
:103CA000B4EE423AF1EE10FA83ED020A40DA93EDF7
:103CB000042A30EE022A3DE0D0B2000140F20C01AD
:103CC00050FA82F0C2F2000101EB800340F20C5086
:103CD000C2F2000090ED063A93ED0F2A83ED000A40
:103CE00030EE430A93ED021AB4EE420AF1EE10FAF6
:103CF00083ED013A83ED031A08DAB1EE422AB4EEFD
:103D0000420AF1EE10FAC8BF9FEDED0A93ED052AC5
:103D1000B0EEC03AB4EE423AF1EE10FA83ED020A88
:103D200080F2968093ED042A30EE022A92E000BFE2
:103D30009FEDE32A93ED074A93ED106A83ED042A81
:103D400093ED063A24EE022AB1EE464AB4EE442A36
:103D500020EE033AF1EE10FAB4EE462A93ED085A3B
:103D600083ED0B3AD8BFB0EE442AF1EE10FAB8BF9B
:103D7000B0EE426A586A30EE410A414220EE050A2E
:103D800033EE061A02EE101A83ED0D0A30EE010A28
:103D900001EE100AB8EEC22AB8EEC11AB4EE420A19
:103DA00083ED0C6AF1EE10FAB4EE410AD8BFB0EE22
:103DB000420AF1EE10FAB8BFB0EE401ABDEEC10AE9
:103DC00040F2606210EE100AC2F20002012183ED9F
:103DD0000E1A00F077B900BFD0B2000140F20C011A
:103DE00050FA82F0C2F2000101EB800340F2EC4095
:103DF000C2F2000090ED023A93ED0F2A83ED000A23
:103E000030EE430A93ED021AB4EE420AF1EE10FAD4
:103E100083ED013A83ED031A08DAB1EE422AB4EEDB
:103E2000420AF1EE10FAC8BF9FEDA50A93ED052AEC
:103E3000B0EEC03AB4EE423AF1EE10FA83ED020A67
:103E400080F2948093ED042A30EE022A90E000BFC5
:103E50009FED9B2A93ED074A93ED106A83ED042AA8
:103E600093ED063A24EE022AB1EE464AB4EE442A15
:103E700020EE033AF1EE10FAB4EE462A93ED085A1A
:103E800083ED0B3AD8BFB0EE442AF1EE10FAB8BF7A
:103E9000B0EE426A586A30EE410A414220EE050A0D
:103EA00033EE061A02EE101A83ED0D0A30EE010A07
:103EB00001EE100AB8EEC22AB8EEC11AB4EE420AF8
:103EC00083ED0C6AF1EE10FAB4EE410AD8BFB0EE01
:103ED000420AF1EE10FAB8BFB0EE401ABDEEC10AC8
:103EE00040F2606210EE100AC2F20002022183ED7D
:103EF0000E1A00F0E7B800BFD0B2000140F20C018A
:103F000050FA82F0C2F2000101EB800340F2EC4073
:103F1000C2F2000090ED063A93ED0F2A83ED000AFD
:103F200030EE430A93ED021AB4EE420AF1EE10FAB3
:103F300083ED013A83ED031A08DAB1EE422AB4EEBA
:103F4000420AF1EE10FAC8BF9FED5D0A93ED052A13
:103F5000B0EEC03AB4EE423AF1EE10FA83ED020A46
:103F60005ADA93ED042A30EE022A57E09FED542AE4
:103F700093ED074A93ED106A83ED042A93ED063A18
:103F800024EE022AB1EE464AB4EE442A20EE033A69
:103F9000F1EE10FAB4EE462A93ED085A83ED0B3A8F
:103FA000D8BFB0EE442AF1EE10FAB8BFB0EE426AC4
:103FB000586A30EE410A414220EE050A33EE061AF5
:103FC00002EE101A83ED0D0A30EE010A01EE100A1E
:103FD000B8EEC22AB8EEC11AB4EE420A83ED0C6AFA
:103FE000F1EE10FAB4EE410AD8BFB0EE420AF1EE9B
:103FF00010FAB8BFB0EE401ABDEEC10A40F2FC5252
:1040000010EE100AC2F20002032183ED0E1A00F036
:1040100059B800BF000000009FED292A93ED074A20
:1040200093ED106A83ED042A93ED063A24EE022AFA
:10403000B1EE464AB4EE442A20EE033AF1EE10FA0D
:10404000B4EE462A93ED085A83ED0B3AD8BFB0EE92
:10405000442AF1EE10FAB8BFB0EE426A586A30EE68
:10406000410A414220EE050A33EE061A02EE101A0A
:1040700083ED0D0A30EE010A01EE100AB8EEC22AF5
:10408000B8EEC11AB4EE420A83ED0C6AF1EE10FAF2
:10409000B4EE410AD8BFB0EE420AF1EE10FAB8BF52
:1040A000B0EE401ABDEEC10A40F2FC5210EE100A0A
:1040B000C2F20002042183ED0E1A00F003B800BF23
:1040C00000000000B0B54B1E00EE100AD8B200018F
:1040D00050FA83F040F22C23C2F200035FFA81FE13
:1040E00040F22C5C03EB8000CEEBCE03C2F2000C5E
:1040F000634493F903401B79E5B2B8EEC01A43EA72
:10410000052380ED001A4FF6FF75002C48BF5B1B9E
:1041100000EE103AB8EEC02A90ED0F3A31EE421A96
:1041200080ED012AB0EEC12A90ED020AB4EE432AD6
:10413000F1EE10FA80ED030A80ED021A03DA9FED2A
:10414000381A0023836090ED042A90ED106A31EE56
:10415000022AB1EE467A90ED063A90ED074AB4EEA7
:10416000472A90ED085AF1EE10FAB4EE462AD8BF6D
:10417000B0EE472AF1EE10FAB8BFB0EE426A21EE77
:10418000032A26EE043A31EE400A20EE054A80ED7D
:104190000B2A32EE030A90ED092A30EE041AB8EE2B
:1041A000C20AB4EE401AF1EE10FA80ED046A80ED16
:1041B0000C3A80ED0D4A0CDA90ED0A0AB8EEC00A0E
:1041C000B4EE401AF1EE10FAD8BFB0EE401AB0EEDD
:1041D000410ABEF1040F80ED0E0A88BFB0BDBDEEEE
:1041E000C00A4DF6F00310EE100ACFF6FF739842A6
:1041F000C8BF034642F210708342A8BF034601F0D5
:104200007F000CEB400518BA040C104661464FF4D1
:104210000072082325F8024CBDE8B040FCF794BCBE
:104220000000000080B5FDF7A5FB40F2C041C2F2DE
:104230000001486080BD000070470000B0B52DED62
:10424000028B40F2B045C2F200052879002855D013
:10425000022829D001284DD140F2FC549FED310AAB
:10426000C2F2000403202146FFF7D0FC9FED2E0A86
:1042700004202146FFF7CAFCE888D8B341F20004C5
:10428000C4F6000420464FF400610022FDF76CFBE9
:10429000204680210022FDF767FBE8880138E8808E
:1042A000BDEC028BB0BD00BF9FED1D8A40F2FC54F7
:1042B000C2F20004B0EE480A03202146FFF7A6FC34
:1042C000B0EE480A04202146FFF7A0FC288988B1F7
:1042D00041F20004C4F6000420464FF400610122BC
:1042E000FDF742FB204680210022FDF73DFB288997
:1042F00001382881BDEC028BB0BD00BF40F2FC54F8
:10430000C2F20004002003212246FFF759FC0020DE
:1043100004212246BDEC028BBDE8B040FFF750BC43
:104320000000000000C145C800D941C8FDF728BB06
:104330004EF68850CEF20000016841F47001016031
:104340007047000040F2C460C2F20000FEF7A6BC55
:1043500040F21070C2F20000FEF7A0BC40F25C70A8
:10436000C2F20000FEF79ABC40F2A870C2F2000050
:10437000FEF794BC40F6FF330268C4F2000343F238
:10438000FF3C9842C4F2010C0ADD60452EDC40F689
:104390000043C4F20003984234D042F600432DE0BB
:1043A000B0F1804F2ED040F20043C4F20003984297
:1043B00028D040F60003C4F20003984222D06045A2
:1043C00026DC40F2FF73C4F20003984236DD40F66B
:1043D0000003C4F20003984246D040F60043C4F202
:1043E0000003984240D042F6004339E045F2000312
:1043F000C4F20103984205D043F20043C4F2010322
:104400009842DCD14B6822F070021A436045D8DD37
:1044100044F2FF33C4F20103984219DD44F2004331
:10442000C4F2010398421FD045F20003C4F2010315
:10443000984219D044F6000312E000BFB0F1804F5B
:1044400012D040F20043C4F2000398420CD00FE0B7
:1044500043F20043C4F20103984205D044F2000342
:10446000C4F20103984203D1CB6822F440721A438C
:1044700080B54B6922F0800E8A6843EA0E03D1F8BA
:1044800000C00360C262A0F18042A2F596324FEAFA
:10449000B222092AC0F828C0BDE8804008D801230C
:1044A00003FA02F240F2E5231A421CBF09690163D4
:1044B000012141610169C90708BF7047016921F005
:1044C000010101617047000040F2F470C2F2000087
:1044D000FEF7B2BD816A0A070CD4CA0715D18A0754
:1044E0001ED44A0727D4CA0630D48A0639D44A06CD
:1044F00042D457E00268D0F838C0536823F4004330
:1045000043EA0C035360CA07E9D00268D0F82CC014
:10451000536823F4003343EA0C0353608A07E0D561
:104520000268D0F830C0536823F4803343EA0C03A8
:1045300053604A07D7D50268D0F834C0536823F4D3
:10454000802343EA0C035360CA06CED50268D0F834
:104550003CC0936823F4805343EA0C0393608A06BB
:10456000C5D50268D0F840C0936823F4005343EAED
:104570000C0393604A0615D5D0F800C0436CDCF8F4
:104580000420B3F5801F22F4801242EA0302CCF823
:10459000042007D1DCF80420836C22F4C0021A4303
:1045A000CCF80420090658BF70470168C06C4A68FF
:1045B00022F400221043486070470000B0B582B07A
:1045C00004460020C4F89000FDF7D4F921680546A0
:1045D0000A68120737D56FF07E4C20464FF4001161
:1045E00000222B46CDF800C000F0FEF950B300BF0A
:1045F000206850E8000F216820F0800041E80002A8
:10460000DAB1206850E8000F216820F0800041E80E
:10461000000292B1206850E8000F216820F080006D
:1046200041E800024AB1206850E8000F216820F0FC
:10463000800041E80002002ADAD1032020218822EC
:104640006BE000BF2168086840075DD56FF07E4CC5
:1046500020464FF4800100222B46CDF800C000F028
:10466000C3F9002850D000BF206850E8000F21682F
:1046700020F4907041E80002BAB3206850E8000FBF
:10468000216820F4907041E8000272B3206850E87D
:10469000000F216820F4907041E800022AB32068DE
:1046A00050E8000F216820F4907041E80002002AD1
:1046B000DAD11AE0206850E8020F216820F00100EA
:1046C00041E80202DAB1206850E8020F216820F0C8
:1046D000010041E8020292B1206850E8020F21680F
:1046E00020F0010041E802024AB1206850E8020FC0
:1046F000216820F0010041E80202002ADAD10320FB
:1047000020218C2209E000BF2020C4F88800C4F8D2
:104710008C00002170220020E166A150002184F865
:10472000841002B0B0BD0000806A0021A0F85E10C5
:10473000FEF780BC70B5054605F108041ECC006884
:10474000194341EA0403EE69046846F6F311CCF616
:10475000FF712140194331430160416848F2000C68
:1047600021F4405111434160AA69C4F2000C604534
:104770001CBF296A0A4381684FF2FF43C1F2FF134D
:10478000194011438160C16AD5F824E021F00F017E
:1047900041EA0E01C16244F6FF71C4F20001884291
:1047A0004FF0100318DC44F20041C4F200018842CB
:1047B00028D044F60001C4F20001884232D044F609
:1047C0000041C4F20001884242D141F28801C4F2A2
:1047D000020109688B0933E045F20001C4F20001CF
:1047E000884217D0604525D043F60001C4F201018C
:1047F00088422DD141F28801C4F202010B6876A2F1
:1048000022E000BF41F28801C4F2020109688B086E
:1048100016E000BF41F28801C4F2020109680B0AE8
:104820000EE000BF41F28801C4F2020109680B09E1
:1048300006E000BF41F28801C4F2020109688B0A58
:1048400045F20402C0F6000203F0030152F82130E1
:10485000604542F20040C0F2F40015D0B6F5004FBA
:1048600022D1082B4FF0010100F2AD80DFE803F008
:10487000065C74AB64ABABAB720000BFFDF7AEFC83
:10488000002840F05D809AE0082B4FF0010100F213
:104890009A80DFE803F0059825981B9898982300E4
:1048A000FDF79CFCB0B98AE0082B4FF0010100F243
:1048B0008A80DFE803F0053D6F88498888886D00AD
:1048C000FDF78CFC002842D179E000BFFDF7B2FC77
:1048D000002874D0D5F824E002E000BF4FF4004077
:1048E00044F6DA71C0F6000131F81E106A68B0FBB8
:1048F000F1F002EB420188424FF0010163D3130350
:10490000984260D8010E000210EB520041F1000104
:104910000023FBF707FD4FF60052A0F54071C0F2EF
:104920000F02914249D34DE0FDF76EFC40B946E0DD
:10493000FDF76AFC58B942E0FDF77CFC00283ED048
:10494000D5F824E008E000BFFDF774FCB8B3D5F853
:1049500024E01FE04FF4004044F6DA71C0F6000195
:1049600031F81E106A68B0FBF1F0510801EB40000D
:10497000B0FBF2F04FF6EF72A0F11001914221D896
:104980004FF6F0710140C0F34200084415E000BF4B
:104990004FF4004044F6DA71C0F6000131F81E1001
:1049A0004FF6EF72B0FBF1F0696800EB5100B0FB1D
:1049B000F1F0A0F11001914204D82968C8600021EB
:1049C00001E000BF01214FF00110A8660022084657
:1049D0006A67AA6770BD00BF010000000400000004
:1049E00002000000080000002DE9F0418046006848
:1049F0001546C2690E461140891BB1FA81F1490979
:104A0000A94223D1069C2CB3611C29D1C169314034
:104A1000891BB1FA81F14909A94217D1C169314015
:104A2000891BB1FA81F14909A9420FD1C16931400D
:104A3000891BB1FA81F14909A94207D1C169314005
:104A4000891BB1FA81F14909A942DFD00020BDE8F4
:104A5000F08100BFFCF78EFF0320BDE8F08100BFAE
:104A60001F4607E0C0693040801BB0FA80F0400963
:104A7000A842EBD1FCF77EFFC01BA04200F2AE8043
:104A8000D8F8000001684907ECD5402EEAD0802E06
:104A9000E8D0C169090700F1A580C1690905E1D520
:104AA0004FF400610162D8F8000050E8000FD8F818
:104AB000001020F4907041E800020AB3D8F800001A
:104AC00050E8000FD8F8001020F4907041E8000280
:104AD000B2B1D8F8000050E8000FD8F8001020F468
:104AE000907041E800025AB1D8F8000050E8000F79
:104AF000D8F8001020F4907041E80002002AD2D1CA
:104B00004FF6FE70CEF6FF70D8F8001051E8021F85
:104B1000D8F80020014042E80213F3B1D8F80010A1
:104B200051E8021FD8F80020014042E80213A3B167
:104B3000D8F8001051E8021FD8F80020014042E8E0
:104B4000021353B1D8F8001051E8021FD8F8002022
:104B5000014042E80213002BD6D1D8F86C0001289E
:104B60002CD1D8F8000050E8000FD8F8001020F041
:104B7000100041E800020AB3D8F8000050E8000F26
:104B8000D8F8001020F0100041E80002B2B1D8F8C7
:104B9000000050E8000FD8F8001020F0100041E8A5
:104BA00000025AB1D8F8000050E8000FD8F8001001
:104BB00020F0100041E80002002AD2D1202000217C
:104BC000C8F88C00C8F86C10C8F87410C8F89000C9
:104BD000032088F88410BDE8F08100BF0320BDE801
:104BE000F08100BF08210162D8F8000050E8000FF2
:104BF000D8F8001020F4907041E800020AB3D8F809
:104C0000000050E8000FD8F8001020F4907041E840
:104C10000002B2B1D8F8000050E8000FD8F8001038
:104C200020F4907041E800025AB1D8F8000050E832
:104C3000000FD8F8001020F4907041E80002002A1C
:104C4000D2D14FF6FE70CEF6FF70D8F8001051E8C2
:104C5000021FD8F80020014042E80213F3B1D8F84F
:104C6000001051E8021FD8F80020014042E802136A
:104C7000A3B1D8F8001051E8021FD8F80020014075
:104C800042E8021353B1D8F8001051E8021FD8F8D7
:104C90000020014042E80213002BD6D1D8F86C0066
:104CA00001282CD1D8F8000050E8000FD8F80010E7
:104CB00020F0100041E800020AB3D8F8000050E8E4
:104CC000000FD8F8001020F0100041E80002B2B147
:104CD000D8F8000050E8000FD8F8001020F01000BD
:104CE00041E800025AB1D8F8000050E8000FD8F8A7
:104CF000001020F0100041E80002002AD2D120204C
:104D0000C8F88C0000200821C8F86C00C8F87400AE
:104D1000C8F8901088F884000120BDE8F0810000F8
:104D2000FEE70000B0B540F2B041C2F200014878A1
:104D300040F2C14C0128C2F2000C3DD191F803E0D1
:104D40005FEA0E6238D040F2C0430122C2F2000393
:104D50000A708CF800208A701A7040F2F41240F247
:104D6000C243C0F2F4121EF00304C2F20003C1F801
:104D7000062013D00025AEF10102012C1D70CA706F
:104D80000DD0AEF10202022C1D70CA7007D00022B5
:104D90001A70AEF10302CA7001E000BF72465FFAFA
:104DA0008EF5042D08D30024043A15061C701C70DF
:104DB0001C701C70CA70F7D1FF2802D0002818BFE1
:104DC000B0BD08708CF80000B0BD000080B582B0A6
:104DD00040F2EC40C2F2000090ED020A9FED321A60
:104DE000B4EE410AF1EE10FA12DB40F2C240C2F218
:104DF0000000007801280BD801208DF8070040F250
:104E00009850C2F200000DF107014FF4C06245E076
:104E1000B4EE410AF1EE10FA12DA40F2C240C2F2E8
:104E20000000007801280BD801208DF8060040F220
:104E30009850C2F200000DF1060140F201622DE02F
:104E4000B4EE410AF1EE10FA12DB40F2C240C2F2B7
:104E50000000007802280BD301208DF8050040F2F5
:104E60009850C2F200000DF1050140F2026215E017
:104E7000B4EE410AF1EE10FA13DA40F2C240C2F287
:104E80000000007802280CD301208DF8040040F2C5
:104E90009850C2F2000001A940F203620123FBF71F
:104EA00053FE02B080BD00BF00B808C894B0FCF744
:104EB00075FD002400200C94CDE90A44CDE9084496
:104EC000FCF70CFE012006904FF48030052107907E
:104ED00002200F9144210D900325CDE91010CDE95A
:104EE000120006A80E95FDF7E7F928B1EFF3108040
:104EF00072B600BFFEE700BF0F20CDE9010501A893
:104F00000421CDE903440594FCF7E6FF20B1EFF35B
:104F1000108072B6FEE700BFFEF7BCFCFEF73CFC5B
:104F2000FEF764FCFEF78CFCFEF768FDFEF7A2FDC1
:104F3000FEF7C8FDFEF7EEFDFEF724FD40F29850A7
:104F4000C2F20000FBF728FD40F2FC50C2F2000064
:104F5000FBF76CFD40F26060C2F20000FBF7B0FDB1
:104F600040F2C460C2F20000FDF728FD40F210706C
:104F7000C2F20000FDF722FD40F25C70C2F20000B8
:104F8000FDF71CFD40F2A870C2F20000FDF716FD0F
:104F9000FBF794FCFFF746F9FBF700FBFBF76CFC13
:104FA0000020FBF75FFEF5E7F1EE100A4FF6FF7108
:104FB000C0F2C03120EA010040F04070E1EE100A7A
:104FC0007047000000000000000001020304060713
:104FD00008090000000001020304010002000400AF
:104FE000060008000A000C001000200040008000AD
:104FF00000010001020304050607080C1014182024
:10500000304000000000000004000000020000002A
:105010000800000001010103070100000804020468
:105020000801010148500008000000205004000061
:105030003C020008C050000850040020400A000054
:105040009C02000800000000321032010219022305
:10505000484243C040279A99193E8025051280DABC
:10506000FFFF1AC8280B5C7A44440B206041441AA5
:10507000F024091A440A3C40448008401C469A998E
:10508000993E0918444109E144612641CDCCCC3D0B
:105090001CE040804E0B1280C1441348420C5C80DF
:1050A0006D45440A2120440B60A04044116A414CE4
:1050B000091844410BCB7A44441324F40000000047
:04000005080001D915
:00000001FF
